S01E00006D6F6E69746F722D64652D696E7665726E616465726F2E737265633E
S11300000C943A000C9457000C9457000C9457002D
S11300100C9457000C9457000C9457000C94570000
S11300200C9457000C9457000C9457000C94D10373
S11300300C9457000C9457000C9457000C945700E0
S11300400C9457000C9457000C9454040C9484049E
S11300500C9457000C9457000C9457000C945700C0
S11300600C9457000C9457006364696E6F70737539
S113007078585B0011241FBECFEFD8E0DEBFCDBFA0
S113008013E0A0E0B1E0ECECF5E102C005900D92C4
S1130090A037B107D9F724E0A0E7B3E001C01D926F
S11300A0AE39B207E1F70E949D030C94E40A0C9464
S11300B000009DEC899F912D112496959695969517
S11300C020E1929FA0011124990F292F220F220FC2
S11300D0920F891B842B08950E94F5030895809143
S11300E090038130A1F508950E9434042091700397
S11300F0309171032C31310524F010927103109268
S113010070038D3081F02091700330917103A90147
S11301104F5F5F4F5093710340937003F901EE58A2
S1130120FC4F808314C08091700390917103FC0193
S1130130EE58FC4F2DE02083FC01ED58FC4F10825B
S1130140109271031092700381E0809390030E94D7
S113015022048111C9CF08950F931F93CF93DF9386
S11301608C01C0E0D0E003C00E9401042196F80194
S1130170EC0FFD1F80818111F7CFDF91CF911F918B
S11301800F9108950F931F93CF93DF93CDB7DEB7ED
S1130190CA56D1090FB6F894DEBF0FBECDBF49E0F1
S11301A050E061E071E082E793E00E94B804892B9B
S11301B009F061C0CE018B599F4F9F938F93029694
S11301C09F938F9302969F938F938BE091E09F93DD
S11301D08F938BE793E09F938F930E94E8040FB66D
S11301E0F894DEBF0FBECDBF039709F03FC0AB96B6
S11301F08EAD9FADAB974897A0F5A9968EAD9FADF8
S1130200A997992374F1CC9764F5A7968EAD9FAD09
S1130210A797992334F1CC9724F50E94730380EDBA
S11302200E947F0380E00E947F03A6968FADA6976D
S11302300E9459000E947F03A8968FADA8970E9440
S113024059000E947F03AA968FADAA970E94590075
S11302500E947F030E947B0384E191E00E94AC0032
S11302605FC08CE391E00E94AC005AC08AE691E042
S11302700E94AC0055C047E050E06EE971E082E7AF
S113028093E00E94B804892B09F046C0CE018B5933
S11302909F4F9F938F9381E191E09F938F9389E781
S11302A093E09F938F930E94E8040F900F900F9018
S11302B00F900F900F90019751F5A7968EAD9FADBB
S11302C0A7979C01225031092B333105D8F4809330
S11302D00001109295031F928F9386EA91E09F93F9
S11302E08F938E010F5F1F4F1F930F930E94C604BD
S11302F0C8010E94AC000F900F900F900F900F90C8
S11303000F900EC088ED91E00E94AC0009C088E017
S113031092E00E94AC0004C084E392E00E94AC002E
S1130320C659DF4F0FB6F894DEBF0FBECDBFDF91C5
S1130330CF911F910F910895982F92959F70990FC7
S1130340292F220F220F920F8F70890F0895AF92D9
S1130350BF92CF92DF92EF92FF920F931F93CF93AE
S1130360DF93CDB7DEB7C857D1090FB6F894DEBF17
S11303700FBECDBF0E94730380ED0E947F0380E017
S11303800E947F030E94730381ED0E947F030E94F9
S11303909303F82E0E949303082F0E948903182FB9
S11303A00E947B038F2D0E949C01F82E802F0E94B7
S11303B09C01082F812F0E949C01182F0E94CD02BE
S11303C0813009F0BFC089EF810F8C3038F4AA2442
S11303D0A39436E422E34EE194E105C0A12C30E578
S11303E02CE346E19FE080919403891720F048179D
S11303F028F0E12C05C0EE24E39402C0EE24E3943B
S113040090919303921728F0391738F02E2DB12CC0
S113041007C021E0BB24B39403C021E0BB24B39400
S1130420213019F425E532E002C02CE532E03F9397
S11304302F931F929F931F928F931F92FF921F924D
S11304400F931F921F9383E792E09F938F93CE01A4
S113045001966C019F938F930E94C604C6010E946B
S1130460AC000FB6F894DEBF0FBECDBF91E0E91229
S113047030C0809192038F5F80939203823058F151
S113048020919403AA2019F083E692E002C08AE640
S113049092E01F922F939F938F931F92FF921F922C
S11304A00F931F921F9389EA92E09F938F93CE013B
S11304B001966C019F938F930E94C604C6010E940B
S11304C0AC00109292030FB6F894DEBF0FBECDBFFE
S11304D002C01092920391E0B91231C0809191034D
S11304E08F5F80939103823008F445C02091930379
S11304F0AA2019F083E692E002C08AE692E01F92F5
S11305002F939F938F931F92FF921F920F931F928B
S11305101F9380EF92E09F938F938E010F5F1F4F85
S11305201F930F930E94C604C8010E94AC0010924E
S113053091030FB6F894DEBF0FBECDBF1CC010925E
S1130540910319C01F92FF921F920F931F921F9342
S113055083E393E09F938F938E010F5F1F4F1F934D
S11305600F930E94C604C8010E94AC000FB6F89411
S1130570DEBF0FBECDBFC858DF4F0FB6F894DEBF45
S11305800FBECDBFDF91CF911F910F91FF90EF90E0
S1130590DF90CF90BF90AF900895CF93DF9300D0BA
S11305A000D01F92CDB7DEB7FE01319685E0DF01A2
S11305B01D928A95E9F784B1806184B985B18F7EF3
S11305C085B9BFEF20EE80E0B15020408040E1F7D4
S11305D000C0000085B1806185B984B18F7E84B983
S11305E0F89420E137E206C02150310919F47894D7
S11305F080E06BC083B1482F407184FDF5CF20E1CA
S113060037E205C02150310911F478945EC093B1EA
S1130610892F807194FFF6CF20E137E206C0215084
S1130620310919F47894842F50C083B1582F507134
S113063084FDF5CF60E035C02150310921F4789470
S113064044C020E137E293B1892F807194FFF4CF45
S113065090EA9A95F1F71C9B1EC027E030E0241B1A
S1130660310981E090E002C0880F991F2A95E2F7D2
S1130670E1E0F0E0EC0FFD1FE60FF11D9081892B06
S1130680808380E197E205C0019719F47894852F5F
S11306901CC01C99F9CF4F5F01C040E0483088F27C
S11306A06F5F6530D0F3789439818A812B819C8186
S11306B0830F820F890F9D81891306C030939303A2
S11306C02093940381E001C0852F0F900F900F9029
S11306D00F900F90DF91CF91089588E48093B80034
S11306E01092B900089584EA8093BC008091BC0004
S11306F08823E4F7089584E98093BC0008958093E7
S1130700BB0084E88093BC008091BC008823E4F79C
S1130710089584E88093BC008091BC008823E4F7AA
S11307208091BB00089584EC8093BC008091BC0050
S11307308823E4F78091BB0008950E94C2030E94BD
S11307406C000E946D0378940E946F008091900366
S1130750813021F40E94C20010929003809198038A
S1130760813091F710929803809195038F5F809365
S1130770950390910001891738F3109295030E9414
S1130780A701E2CF109280008BE08093810083EC7C
S113079099E0909389008093880082E080936F00B1
S11307A008951F920F920FB60F9211248F939F9367
S11307B081E0809399038091960390919703019629
S11307C090939703809396038436910538F01092A2
S11307D097031092960381E0809398039F918F91E1
S11307E00F900FBE0F901F9018951092C50087E6CA
S11307F08093C40088E98093C10086E08093C2009E
S1130800089520911D0430E02F5F3F4F2F773078FB
S1130810332334F42150310920683F6F2F5F3F4F59
S113082090911C042917E1F3E0911D04F0E0E25ECD
S1130830FB4F808320931D04E1ECF0E08081806213
S11308408083089580919B0390E080589F4F20916E
S11308509A03821B91098F779078992324F4019746
S113086080689F6F0196089590919B0380919A03ED
S11308709817C1F0E0919A03F0E0E456FC4F8081B0
S113088020919A0330E02F5F3F4F2F773078332346
S113089034F42150310920683F6F2F5F3F4F20937C
S11308A09A03089580E008951F920F920FB60F9255
S11308B011242F933F938F939F93EF93FF93309142
S11308C0C60080919B0390E001968F7790789923DE
S11308D024F4019780689F6F019620919A0328174A
S11308E041F0E0919B03F0E0E456FC4F30838093A9
S11308F09B03FF91EF919F918F913F912F910F90C7
S11309000FBE0F901F9018951F920F920FB60F9263
S113091011248F939F93EF93FF9390911D048091E3
S11309201C049817B9F0E0911C04F0E0E25EFB4F60
S113093080818093C60080911C0490E001968F779B
S11309409078992324F4019780689F6F019680938F
S11309501C0405C0E1ECF0E080818F7D8083FF9171
S1130960EF919F918F910F900FBE0F901F9018954C
S1130970FB01DC014150504030F08D910190801911
S113098019F40020B9F7881B990B0895AEE0B0E084
S1130990ECECF4E00C94BB0A0D891E8986E08C8390
S11309A01A8309838FEF9FE79E838D83AE01475E91
S11309B05F4F6F89788DCE0101960E940105EF810A
S11309C0F885E00FF11F10822E96E4E00C94D70A0C
S11309D0AEE0B0E0EEEEF4E00C94BD0A85E08C836A
S11309E08B899C899A838983AE01495E5F4F6D89A7
S11309F07E89CE0101960E947E082E96E2E00C9438
S1130A00D90AABE0B0E0E7E0F5E00C94AD0A6C0184
S1130A107B018A01FC0117821682838181FFCCC18C
S1130A20CE0101963C01F6019381F70193FD859176
S1130A3093FF81917F01882309F4BAC1853239F487
S1130A4093FD859193FF81917F01853229F4B6014D
S1130A5090E00E94F709E7CF912C212C312CFFE183
S1130A60F315D8F08B3279F038F4803279F0833290
S1130A70A1F4232D20611DC08D3261F0803369F40F
S1130A80232D216016C0832D8260382EE32DE4606F
S1130A903E2E2AC0F32DF8601DC037FC2DC020ED7A
S1130AA0280F2A3040F08E32B9F436FC81C1232D50
S1130AB02064322E19C036FE06C08AE0989E200DAE
S1130AC01124922E11C0EAE02E9E200D1124222E14
S1130AD0F32DF0623F2E08C08C3621F4832D8068FC
S1130AE0382E02C0883641F4F70193FD859193FFB7
S1130AF081917F018111B3CF982F9F7D95549330BD
S1130B0028F40C5F1F4F9FE399830DC0833631F0A7
S1130B10833771F0833509F059C021C0F801808111
S1130B2089830E5F1F4F88248394912C530113C033
S1130B302801F2E04F0E511CF801A080B18036FE6E
S1130B4003C0692D70E002C06FEF7FEFC5010E9402
S1130B50AE094C018201F32DFF773F2E16C0280108
S1130B6022E0420E511CF801A080B18036FE03C081
S1130B70692D70E002C06FEF7FEFC5010E94A309E9
S1130B804C01F32DF0683F2E820133FC1BC0822DF3
S1130B9090E088169906B0F4B60180E290E00E94D5
S1130BA0F7092A94F4CFF50137FC859137FE81913A
S1130BB05F01B60190E00E94F70921102A9421E018
S1130BC0821A91088114910471F7E8C0843611F0F7
S1130BD0893641F5F80137FE07C060817181828151
S1130BE093810C5F1F4F08C060817181072E000C38
S1130BF0880B990B0E5F1F4FF32DFF763F2E97FF47
S1130C0009C090958095709561957F4F8F4F9F4F48
S1130C10F0683F2E2AE030E0A3010E944C0A882E9F
S1130C20861845C0853731F4232D2F7EB22E2AE055
S1130C3030E025C0932D997FB92E8F36C1F018F47A
S1130C40883579F0B5C0803719F0883721F0B0C005
S1130C50E92FE061BE2EB4FE0DC0FB2DF460BF2E63
S1130C6009C034FE0AC0292F2660B22E06C028E02F
S1130C7030E005C020E130E002C020E132E0F801BC
S1130C80B7FE07C060817181828193810C5F1F4F21
S1130C9006C06081718180E090E00E5F1F4FA30168
S1130CA00E944C0A882E8618FB2DFF773F2E36FEB5
S1130CB00DC0232D2E7FA22E891458F434FE0BC0B0
S1130CC032FC09C0832D8E7EA82E05C0B82CA32C1F
S1130CD003C0B82C01C0B92CA4FE0FC0FE01E80D5E
S1130CE0F11D8081803321F49A2D997EA92E09C0AB
S1130CF0A2FE06C0B394B39404C08A2D867809F08A
S1130D00B394A3FC11C0A0FE06C0B21488F4280C4E
S1130D10922C9B180EC0B21460F4B60180E290E0ED
S1130D200E94F709B394F7CFB21418F42B1802C039
S1130D30982C212CA4FE10C0B60180E390E00E9400
S1130D40F709A2FE17C0A1FC03C088E790E002C027
S1130D5088E590E0B6010CC08A2D867859F0A1FE92
S1130D6002C08BE201C080E2A7FC8DE2B60190E0F4
S1130D700E94F709891438F4B60180E390E00E94D8
S1130D80F7099A94F7CF8A94F301E80DF11D808155
S1130D90B60190E00E94F7098110F5CF222009F4F2
S1130DA042CEB60180E290E00E94F7092A94F6CF81
S1130DB0F6018681978102C08FEF9FEF2B96E2E1C7
S1130DC00C94C90A20FD09C0FC0123FD05C022FFC3
S1130DD002C07383628351834083089544FD17C026
S1130DE046FD17C0AB01BC01DA01FB01AA0FBB1F12
S1130DF0EE1FFF1F1094D1F74A0F5B1F6E1F7F1F5A
S1130E00CB01BA01660F771F881F991F09C033E011
S1130E1001C034E0660F771F881F991F3150D1F746
S1130E20620F711D811D911D08950F931F93CF9320
S1130E30DF938C01C8010E94B909EC0197FD08C039
S1130E400E948F09892BB1F7B801CE010E94330AA1
S1130E50CE01DF91CF911F910F9108958F929F92B0
S1130E60AF92BF92EF92FF920F931F93CF93DF93B2
S1130E708C01D62F7A01B22E0E94B9099C01332726
S1130E802B32310531F02D32310561F48B2D806820
S1130E90B82ED15011F480E068C0C8010E94B9098D
S1130EA097FDF9CFCB2DCD7F2B2D207309F5803302
S1130EB0F9F4AA24AA94AD0E09F443C0C8010E940F
S1130EC0B90997FD3EC09C012F7D33272835310594
S1130ED049F4C264D250A9F1C8010E94B90997FF2C
S1130EE007C02FC0B6FE02C0C26001C0C261DA2DC5
S1130EF0812C912C540120ED280F283080F0C4FF60
S1130F0004C0B8010E94330A19C02A3040F0C6FF59
S1130F10F8CF2F7D3FEE320F363098F727504C2F05
S1130F20C501B4010E94EE064B015C01C260D150C0
S1130F3059F0C8010E94B90997FFDDCFC1FD04C073
S1130F40AACF812C912C5401C7FF08C0B094A0945F
S1130F5090948094811C911CA11CB11C2C2FB50170
S1130F60A401C7010E94E20681E0DF91CF911F91A5
S1130F700F91FF90EF90BF90AF909F908F90089546
S1130F80A0E2B0E0E6ECF7E00C94B00A5C01962E27
S1130F907A01F9018E010F5F1F4F680180E2D801C9
S1130FA01D928A95E9F7D50113968C9080E090E024
S1130FB0612C712C30E061E070E083FC259183FEAC
S1130FC021918F01522E211103C080E090E092C044
S1130FD02E3511F4009751F1432F50E0481759076B
S1130FE03CF42D3559F12D3219F4772009F103C061
S1130FF0772009F46AC0452D469546954695D60155
S1131000A40FB11D452D47708B0102C0000F111FA5
S11310104A95E2F7A8015C91452B4C93651459F06D
S1131020561410F45394E7CF5A94E5CF31E004C03A
S11310307724739401C0712C0196BFCF772019F0E7
S11310408E8180628E83311103C08824839417C0FB
S1131050F6019E012F5D3F4F8081809581932E176D
S11310603F07D1F7F2CFE114F10429F0D7018C93B3
S1131070F70131967F019A94812C9920F9F0C501EA
S11310800E94B90997FD18C0FC01FF2723E0F595DC
S1131090E7952A95E1F7EC0DFD1D208130E0AC01C8
S11310A04770552702C0359527954A95E2F720FDEC
S11310B0DACFB5010E94330A811087CFE114F1041D
S11310C011F0D7011C92C80115C0422F46954695D0
S11310D04695D601A40FB11D422F47708B0102C063
S11310E0000F111F4A95E2F7A8015C91452B4C9320
S11310F0622EA2CFA096EFE00C94CC0AA0E0B0E060
S1131100E4E8F8E00C94B00A6C01EB015A01FC012C
S113111017821682512CF601E380FE01E3FC8591CF
S1131120E3FE8191182FEF01882309F4EEC090E0CB
S11311300E948F09892B21F0C6010E941507EBCF6D
S1131140153241F4FE01E3FC1591E3FE1191EF0128
S1131150153281F4C6010E94B90997FDD4C0412F0C
S113116050E09C01332724173507A9F2B6010E94E9
S1131170330ACBC01A3239F4E3FC1591E3FE119122
S1131180EF0101E001C000E0F12C20ED210F2A3035
S113119080F402606F2D70E080E090E040E20E94F5
S11311A0EE06F62EFE01E3FC1591E3FE1191EF012C
S11311B0ECCF01FF03C0F11003C0A7C0FF24FA94D1
S11311C0183619F01C3651F010C0FE01E3FC1591DD
S11311D0E3FE1191EF01183641F408600460FE014A
S11311E0E3FC1591E3FE1191EF01112309F48DC085
S11311F0612F70E088E690E00E949809892B09F439
S113120084C000FD07C0F50180809180C50102966D
S11312105C0102C0812C912C1E3651F4F6014681EA
S1131220578160E070E0202FC4010E94E20673CF72
S11312301336A9F401FD02C0FF24F394C6010E94F1
S1131240B90997FD60C08114910429F0F4018083E9
S1131250C40101964C01FA94F110F0CF50C01B3533
S113126059F49E01A4016F2DC6010E94C007EC0130
S1131270892B09F044C03EC0C6010E94150797FDA2
S113128042C01F3661F128F4143639F1193651F190
S113129028C0133771F0153701F123C0811491046C
S11312A029F0F4016082C40101964C01FA94FF20F4
S11312B071F0C6010E94B9093C0197FD08C00E9463
S11312C08F09892B59F3B601C3010E94330A811493
S11312D09104A9F0F401108212C0006203C00061FD
S11312E001C00064202FA4016F2DC6010E942E07A7
S11312F0811105C0F6018381807329F406C000FDC5
S11313000ACF539408CF552019F0852D90E002C0E0
S11313108FEF9FEFCDB7DEB7EFE00C94CC0A9111BD
S11313200C94AA0A803219F089508550C8F70895A0
S1131330FC010590061621F00020D9F7C00108959C
S11313403197CF010895FC01059061507040011060
S1131350D8F7809590958E0F9F1F0895FC016150DA
S1131360704001900110D8F7809590958E0F9F1FC3
S11313700895CF93DF93EC012B8120FF33C026FF28
S11313800AC02F7B2B838E819F8101969F838E833E
S11313908A8190E029C022FF0FC0E881F981808111
S11313A0082E000C990B009719F420622B831AC0A5
S11313B03196F983E8830EC0EA85FB85099597FF8A
S11313C009C02B81019611F080E201C080E1822BDB
S11313D08B8308C02E813F812F5F3F4F3F832E8335
S11313E0992702C08FEF9FEFDF91CF9108950F935C
S11313F01F93CF93DF93FB01238121FD03C08FEF64
S11314009FEF2CC022FF16C046815781248135816D
S11314104217530744F4A081B1819D012F5F3F4FD0
S1131420318320838C93268137812F5F3F4F37830D
S1131430268314C08B01EC01FB010084F185E02DAF
S11314400995892BE1F6D80116968D919C911797F1
S1131450019617969C938E931697CE01DF91CF91A8
S11314601F910F910895FB01238120FF12C026FDD7
S113147010C08F3F3FEF930761F082832F7D20647C
S11314802383268137812150310937832683992785
S113149008958FEF9FEF0895FA01AA27283051F19C
S11314A0203181F1E8946F936E7F6E5F7F4F8F4F91
S11314B09F4FAF4FB1E03ED0B4E03CD0670F781FF0
S11314C0891F9A1FA11D680F791F8A1F911DA11DD5
S11314D06A0F711D811D911DA11D20D009F468940E
S11314E03F912AE0269F11243019305D3193DEF6B6
S11314F0CF010895462F4770405D4193B3E00FD06C
S1131500C9F7F6CF462F4F70405D4A3318F0495D56
S113151031FD4052419302D0A9F7EACFB4E0A69539
S11315209795879577956795BA95C9F7009761055B
S1131530710508959B01AC010A2E069457954795B1
S113154037952795BA95C9F7620F731F841F951FA6
S1131550A01D08959927882708952F923F924F92AE
S11315605F926F927F928F929F92AF92BF92CF922F
S1131570DF92EF92FF920F931F93CF93DF93CDB738
S1131580DEB7CA1BDB0B0FB6F894DEBF0FBECDBFB0
S113159009942A88398848885F846E847D848C8481
S11315A09B84AA84B984C884DF80EE80FD800C818A
S11315B01B81AA81B981CE0FD11D0FB6F894DEBF6D
S10F15C00FBECDBFED010895F894FFCFDD
S11315CC055345545F54494D453D0025643A256403
S11315DC3A2564002D3E20434F4D414E444F20414B
S11315EC4345505441444F3A205254432041637470
S11315FC75616C697A61646F2E0D0A002D3E20456D
S113160C52524F523A2056616C6F72657320646566
S113161C207469656D706F206675657261206465F0
S113162C2072616E676F2E0D0A002D3E20455252BA
S113163C4F523A20466F726D61746F20696E7661F9
S113164C6C69646F2E20557365205345545F54495F
S113165C4D453D48483A4D4D3A53530D0A005345B8
S113166C545F544D3D002D3E20434F4D414E444F4D
S113167C20414345505441444F3A205461736120F6
S113168C6465206D7565737472656F203D202564E7
S113169C207365672E0D0A002D3E204552524F5281
S11316AC3A20542064656265206573746172206508
S11316BC6E7472652032207920363020736567751C
S11316CC6E646F732E0D0A002D3E204552524F52FC
S11316DC3A20466F726D61746F20696E76616C6925
S11316EC646F2E20557365205345545F544D3D5300
S11316FC530D0A002D3E204552524F523A20436F4F
S113170C6D616E646F20646573636F6E6F6369647F
S113171C6F2E0D0A00414C45525441004E4F524D10
S113172C414C00646975726E6F006E6F63747572F0
S113173C6E6F005B253032643A253032643A2530C2
S113174C32645D20543A2025303264B043207C202E
S113175C483A20253032642525207C204573746159
S113176C646F3A2025730D0A005B414C4552544179
S113177C5D205B253032643A253032643A253032B0
S113178C645D2054656D7065726174757261206658
S113179C756572612064652072616E676F202573B4
S11317AC212056616C6F723A202564B0430D0A00F7
S11317BC5B414C455254415D205B253032643A25E3
S11317CC3032643A253032645D2048756D6564614D
S11317DC642066756572612064652072616E676F42
S11317EC202573212056616C6F723A2025642525BF
S11317FC0D0A005B253032643A253032643A2530C8
S113180C32645D204552524F52204352495449434D
S113181C4F3A2053656E736F722044485431312013
S113182C6E6F20726573706F6E64652E0D0A000006
S9030000FC
